{
  "_format": "hh-sol-artifact-1",
  "contractName": "LSP8Marketplace",
  "sourceName": "contracts/LSP8Marketplace.sol",
  "abi": [
    {
      "inputs": [],
      "stateMutability": "nonpayable",
      "type": "constructor"
    },
    {
      "anonymous": false,
      "inputs": [
        {
          "indexed": false,
          "internalType": "string",
          "name": "func",
          "type": "string"
        },
        {
          "indexed": false,
          "internalType": "address",
          "name": "sender",
          "type": "address"
        },
        {
          "indexed": false,
          "internalType": "bytes",
          "name": "data",
          "type": "bytes"
        }
      ],
      "name": "Action",
      "type": "event"
    },
    {
      "anonymous": false,
      "inputs": [
        {
          "indexed": false,
          "internalType": "string",
          "name": "func",
          "type": "string"
        },
        {
          "indexed": false,
          "internalType": "address",
          "name": "sender",
          "type": "address"
        },
        {
          "indexed": false,
          "internalType": "uint256",
          "name": "value",
          "type": "uint256"
        },
        {
          "indexed": false,
          "internalType": "bytes",
          "name": "data",
          "type": "bytes"
        }
      ],
      "name": "Transfer",
      "type": "event"
    },
    {
      "stateMutability": "payable",
      "type": "fallback"
    },
    {
      "inputs": [
        {
          "internalType": "address",
          "name": "LSP8Address",
          "type": "address"
        },
        {
          "internalType": "bytes32",
          "name": "tokenId",
          "type": "bytes32"
        },
        {
          "internalType": "address",
          "name": "LSP7Address",
          "type": "address"
        },
        {
          "internalType": "address",
          "name": "offerCreator",
          "type": "address"
        }
      ],
      "name": "_returnLSP7OfferAmount",
      "outputs": [
        {
          "internalType": "uint256",
          "name": "",
          "type": "uint256"
        }
      ],
      "stateMutability": "view",
      "type": "function"
    },
    {
      "inputs": [
        {
          "internalType": "address",
          "name": "LSP8Address",
          "type": "address"
        },
        {
          "internalType": "bytes32",
          "name": "tokenId",
          "type": "bytes32"
        }
      ],
      "name": "_returnLSP7OfferCreators",
      "outputs": [
        {
          "internalType": "address[]",
          "name": "",
          "type": "address[]"
        }
      ],
      "stateMutability": "view",
      "type": "function"
    },
    {
      "inputs": [
        {
          "internalType": "address",
          "name": "LSP8Address",
          "type": "address"
        },
        {
          "internalType": "bytes32",
          "name": "tokenId",
          "type": "bytes32"
        },
        {
          "internalType": "address",
          "name": "offersCreator",
          "type": "address"
        }
      ],
      "name": "_returnLSP7OffersByCreators",
      "outputs": [
        {
          "internalType": "address[]",
          "name": "",
          "type": "address[]"
        },
        {
          "internalType": "uint256[]",
          "name": "",
          "type": "uint256[]"
        }
      ],
      "stateMutability": "view",
      "type": "function"
    },
    {
      "inputs": [
        {
          "internalType": "address",
          "name": "LSP8Address",
          "type": "address"
        },
        {
          "internalType": "bytes32",
          "name": "tokenId",
          "type": "bytes32"
        }
      ],
      "name": "_returnLSP7Prices",
      "outputs": [
        {
          "internalType": "address[]",
          "name": "",
          "type": "address[]"
        },
        {
          "internalType": "uint256[]",
          "name": "",
          "type": "uint256[]"
        }
      ],
      "stateMutability": "view",
      "type": "function"
    },
    {
      "inputs": [
        {
          "internalType": "address",
          "name": "LSP8Address",
          "type": "address"
        },
        {
          "internalType": "bytes32",
          "name": "tokenId",
          "type": "bytes32"
        }
      ],
      "name": "_returnLSP8OfferAddresses",
      "outputs": [
        {
          "internalType": "address[]",
          "name": "",
          "type": "address[]"
        }
      ],
      "stateMutability": "view",
      "type": "function"
    },
    {
      "inputs": [
        {
          "internalType": "address",
          "name": "LSP8Address",
          "type": "address"
        },
        {
          "internalType": "bytes32",
          "name": "tokenId",
          "type": "bytes32"
        },
        {
          "internalType": "address",
          "name": "offerLSP8Address",
          "type": "address"
        }
      ],
      "name": "_returnLSP8OfferTokenIdsByAddress",
      "outputs": [
        {
          "internalType": "bytes32[]",
          "name": "",
          "type": "bytes32[]"
        }
      ],
      "stateMutability": "view",
      "type": "function"
    },
    {
      "inputs": [
        {
          "internalType": "address",
          "name": "LSP8Address",
          "type": "address"
        },
        {
          "internalType": "bytes32",
          "name": "tokenId",
          "type": "bytes32"
        }
      ],
      "name": "_returnLYXOffers",
      "outputs": [
        {
          "internalType": "address[]",
          "name": "",
          "type": "address[]"
        },
        {
          "internalType": "uint256[]",
          "name": "",
          "type": "uint256[]"
        }
      ],
      "stateMutability": "view",
      "type": "function"
    },
    {
      "inputs": [
        {
          "internalType": "address",
          "name": "LSP8Address",
          "type": "address"
        },
        {
          "internalType": "bytes32",
          "name": "tokenId",
          "type": "bytes32"
        }
      ],
      "name": "_returnLYXPrice",
      "outputs": [
        {
          "internalType": "uint256",
          "name": "",
          "type": "uint256"
        }
      ],
      "stateMutability": "view",
      "type": "function"
    },
    {
      "inputs": [
        {
          "internalType": "address",
          "name": "LSP8Address",
          "type": "address"
        },
        {
          "internalType": "bytes32",
          "name": "tokenId",
          "type": "bytes32"
        }
      ],
      "name": "_returnOfferAlowance",
      "outputs": [
        {
          "internalType": "bool[3]",
          "name": "",
          "type": "bool[3]"
        }
      ],
      "stateMutability": "view",
      "type": "function"
    },
    {
      "inputs": [
        {
          "internalType": "address",
          "name": "LSP8Address",
          "type": "address"
        },
        {
          "internalType": "bytes32",
          "name": "tokenId",
          "type": "bytes32"
        }
      ],
      "name": "buyLSP8WithLYX",
      "outputs": [],
      "stateMutability": "payable",
      "type": "function"
    },
    {
      "inputs": [
        {
          "internalType": "address",
          "name": "LSP8Address",
          "type": "address"
        },
        {
          "internalType": "bytes32",
          "name": "tokenId",
          "type": "bytes32"
        },
        {
          "internalType": "uint256",
          "name": "LYXAmount",
          "type": "uint256"
        }
      ],
      "name": "changeLYXPrice",
      "outputs": [],
      "stateMutability": "nonpayable",
      "type": "function"
    },
    {
      "inputs": [
        {
          "internalType": "uint256",
          "name": "escId",
          "type": "uint256"
        }
      ],
      "name": "confirmReceipt",
      "outputs": [],
      "stateMutability": "nonpayable",
      "type": "function"
    },
    {
      "inputs": [],
      "name": "escrowBalance",
      "outputs": [
        {
          "internalType": "uint256",
          "name": "",
          "type": "uint256"
        }
      ],
      "stateMutability": "view",
      "type": "function"
    },
    {
      "inputs": [
        {
          "internalType": "address",
          "name": "",
          "type": "address"
        },
        {
          "internalType": "bytes32",
          "name": "",
          "type": "bytes32"
        }
      ],
      "name": "escrowIdOfToken",
      "outputs": [
        {
          "internalType": "uint256",
          "name": "",
          "type": "uint256"
        }
      ],
      "stateMutability": "view",
      "type": "function"
    },
    {
      "inputs": [],
      "name": "getBalance",
      "outputs": [
        {
          "internalType": "uint256",
          "name": "",
          "type": "uint256"
        }
      ],
      "stateMutability": "view",
      "type": "function"
    },
    {
      "inputs": [
        {
          "internalType": "uint256",
          "name": "escId",
          "type": "uint256"
        }
      ],
      "name": "getBuyerSeller",
      "outputs": [
        {
          "internalType": "address[2]",
          "name": "",
          "type": "address[2]"
        }
      ],
      "stateMutability": "view",
      "type": "function"
    },
    {
      "inputs": [
        {
          "internalType": "uint256",
          "name": "escId",
          "type": "uint256"
        }
      ],
      "name": "getEscrowStatus",
      "outputs": [
        {
          "internalType": "enum LSP8MarketplaceEscrow.status",
          "name": "",
          "type": "uint8"
        }
      ],
      "stateMutability": "view",
      "type": "function"
    },
    {
      "inputs": [
        {
          "internalType": "address",
          "name": "LSP8",
          "type": "address"
        },
        {
          "internalType": "bytes32",
          "name": "tokenId",
          "type": "bytes32"
        }
      ],
      "name": "getItemIdOfToken",
      "outputs": [
        {
          "internalType": "uint256",
          "name": "",
          "type": "uint256"
        }
      ],
      "stateMutability": "view",
      "type": "function"
    },
    {
      "inputs": [],
      "name": "getTotalItems",
      "outputs": [
        {
          "internalType": "uint256",
          "name": "",
          "type": "uint256"
        }
      ],
      "stateMutability": "view",
      "type": "function"
    },
    {
      "inputs": [
        {
          "internalType": "address",
          "name": "LSP8Address",
          "type": "address"
        },
        {
          "internalType": "bytes32",
          "name": "tokenId",
          "type": "bytes32"
        }
      ],
      "name": "isOnSale",
      "outputs": [
        {
          "internalType": "bool",
          "name": "",
          "type": "bool"
        }
      ],
      "stateMutability": "view",
      "type": "function"
    },
    {
      "inputs": [
        {
          "internalType": "uint256",
          "name": "",
          "type": "uint256"
        }
      ],
      "name": "ownerOf",
      "outputs": [
        {
          "internalType": "address",
          "name": "",
          "type": "address"
        }
      ],
      "stateMutability": "view",
      "type": "function"
    },
    {
      "inputs": [
        {
          "internalType": "address",
          "name": "LSP8Address",
          "type": "address"
        },
        {
          "internalType": "bytes32",
          "name": "tokenId",
          "type": "bytes32"
        },
        {
          "internalType": "uint256",
          "name": "LYXAmount",
          "type": "uint256"
        },
        {
          "internalType": "bool[3]",
          "name": "allowedOffers",
          "type": "bool[3]"
        }
      ],
      "name": "putLSP8OnSale",
      "outputs": [],
      "stateMutability": "nonpayable",
      "type": "function"
    },
    {
      "inputs": [
        {
          "internalType": "address",
          "name": "LSP8Address",
          "type": "address"
        },
        {
          "internalType": "bytes32",
          "name": "tokenId",
          "type": "bytes32"
        }
      ],
      "name": "removeLSP8FromSale",
      "outputs": [],
      "stateMutability": "nonpayable",
      "type": "function"
    },
    {
      "inputs": [
        {
          "internalType": "uint256",
          "name": "escId",
          "type": "uint256"
        }
      ],
      "name": "reportDispute",
      "outputs": [],
      "stateMutability": "nonpayable",
      "type": "function"
    },
    {
      "inputs": [
        {
          "internalType": "uint256",
          "name": "escId",
          "type": "uint256"
        }
      ],
      "name": "reportWithdraw",
      "outputs": [],
      "stateMutability": "nonpayable",
      "type": "function"
    },
    {
      "inputs": [
        {
          "internalType": "address",
          "name": "_treasury",
          "type": "address"
        }
      ],
      "name": "setTreasury",
      "outputs": [],
      "stateMutability": "nonpayable",
      "type": "function"
    },
    {
      "inputs": [],
      "name": "totalConfirmed",
      "outputs": [
        {
          "internalType": "uint256",
          "name": "",
          "type": "uint256"
        }
      ],
      "stateMutability": "view",
      "type": "function"
    },
    {
      "inputs": [],
      "name": "totalDisputed",
      "outputs": [
        {
          "internalType": "uint256",
          "name": "",
          "type": "uint256"
        }
      ],
      "stateMutability": "view",
      "type": "function"
    },
    {
      "inputs": [],
      "name": "totalItems",
      "outputs": [
        {
          "internalType": "uint256",
          "name": "",
          "type": "uint256"
        }
      ],
      "stateMutability": "view",
      "type": "function"
    },
    {
      "stateMutability": "payable",
      "type": "receive"
    }
  ],
  "bytecode": "0x608060405260006005556000600655600060075534801561001f57600080fd5b5033600c60006101000a81548173ffffffffffffffffffffffffffffffffffffffff021916908373ffffffffffffffffffffffffffffffffffffffff16021790555033600d60006101000a81548173ffffffffffffffffffffffffffffffffffffffff021916908373ffffffffffffffffffffffffffffffffffffffff160217905550614b90806100b16000396000f3fe6080604052600436106101c65760003560e01c806382d1a9a6116100f7578063c5ab12c411610095578063e568dd7311610064578063e568dd731461075d578063f0f442601461079b578063f9488bcf146107c4578063f9e336031461080157610217565b8063c5ab12c41461068d578063c9958c4d146106ca578063cf811d66146106f5578063e11e1b0c1461073257610217565b8063b30d8bb7116100d1578063b30d8bb7146105ad578063bd295440146105d6578063bddf9d4d14610613578063c22751901461065057610217565b806382d1a9a614610509578063843cba1314610546578063987e09cd1461056f57610217565b80634028a0f11161016457806369fc274e1161013e57806369fc274e1461044a5780636b1c6fe1146104875780636ce3d81a146104b057806382c9a551146104ed57610217565b80634028a0f1146103b957806343561aa0146103e45780636352211e1461040d57610217565b80632799276d116101a05780632799276d146102e9578063310aac6914610314578063345460cd1461033f578063392728ce1461037c57610217565b806307610107146102575780630a84a4fd1461029557806312065fe0146102be57610217565b36610217577f52216a6001690416596ecdd7a9a8fef5ddb13b4fb07e7d3373124492891e7adb33346040518060200160405280600081525060405161020d939291906133c0565b60405180910390a1005b7f52216a6001690416596ecdd7a9a8fef5ddb13b4fb07e7d3373124492891e7adb333460003660405161024d9493929190613499565b60405180910390a1005b34801561026357600080fd5b5061027e6004803603810190610279919061355d565b61082a565b60405161028c92919061372c565b60405180910390f35b3480156102a157600080fd5b506102bc60048036038101906102b7919061378f565b610a06565b005b3480156102ca57600080fd5b506102d3610bad565b6040516102e091906137e2565b60405180910390f35b3480156102f557600080fd5b506102fe610bb7565b60405161030b91906137e2565b60405180910390f35b34801561032057600080fd5b50610329610bbd565b60405161033691906137e2565b60405180910390f35b34801561034b57600080fd5b50610366600480360381019061036191906137fd565b610bc7565b60405161037391906138a1565b60405180910390f35b34801561038857600080fd5b506103a3600480360381019061039e91906138bc565b610c50565b6040516103b091906138fc565b60405180910390f35b3480156103c557600080fd5b506103ce610cb5565b6040516103db91906137e2565b60405180910390f35b3480156103f057600080fd5b5061040b600480360381019061040691906137fd565b610cbb565b005b34801561041957600080fd5b50610434600480360381019061042f91906137fd565b610f3c565b604051610441919061391e565b60405180910390f35b34801561045657600080fd5b50610471600480360381019061046c91906138bc565b610f6f565b60405161047e91906137e2565b60405180910390f35b34801561049357600080fd5b506104ae60048036038101906104a991906138bc565b610f94565b005b3480156104bc57600080fd5b506104d760048036038101906104d291906137fd565b611143565b6040516104e491906139bd565b60405180910390f35b610507600480360381019061050291906138bc565b61122b565b005b34801561051557600080fd5b50610530600480360381019061052b91906139d8565b611479565b60405161053d91906137e2565b60405180910390f35b34801561055257600080fd5b5061056d600480360381019061056891906137fd565b611527565b005b34801561057b57600080fd5b50610596600480360381019061059191906138bc565b61182c565b6040516105a492919061372c565b60405180910390f35b3480156105b957600080fd5b506105d460048036038101906105cf91906137fd565b611962565b005b3480156105e257600080fd5b506105fd60048036038101906105f891906138bc565b611ba7565b60405161060a91906137e2565b60405180910390f35b34801561061f57600080fd5b5061063a600480360381019061063591906138bc565b611c05565b60405161064791906137e2565b60405180910390f35b34801561065c57600080fd5b50610677600480360381019061067291906138bc565b611c60565b6040516106849190613a5a565b60405180910390f35b34801561069957600080fd5b506106b460048036038101906106af919061355d565b611cba565b6040516106c19190613b33565b60405180910390f35b3480156106d657600080fd5b506106df611df7565b6040516106ec91906137e2565b60405180910390f35b34801561070157600080fd5b5061071c600480360381019061071791906138bc565b611dfd565b60405161072991906138fc565b60405180910390f35b34801561073e57600080fd5b50610747611e62565b60405161075491906137e2565b60405180910390f35b34801561076957600080fd5b50610784600480360381019061077f91906138bc565b611e68565b60405161079292919061372c565b60405180910390f35b3480156107a757600080fd5b506107c260048036038101906107bd9190613b55565b611f4f565b005b3480156107d057600080fd5b506107eb60048036038101906107e691906138bc565b612023565b6040516107f89190613c2d565b60405180910390f35b34801561080d57600080fd5b5061082860048036038101906108239190613daa565b6120e4565b005b6060806000600260008773ffffffffffffffffffffffffffffffffffffffff1673ffffffffffffffffffffffffffffffffffffffff16815260200190815260200160002060008681526020019081526020016000209050606060005b6108cf8360050160008873ffffffffffffffffffffffffffffffffffffffff1673ffffffffffffffffffffffffffffffffffffffff16815260200190815260200160002061228e565b8110156109ad5761097b61092c828560050160008a73ffffffffffffffffffffffffffffffffffffffff1673ffffffffffffffffffffffffffffffffffffffff1681526020019081526020016000206122a390919063ffffffff16565b8460060160008973ffffffffffffffffffffffffffffffffffffffff1673ffffffffffffffffffffffffffffffffffffffff1681526020019081526020016000206122bd90919063ffffffff16565b82828151811061098e5761098d613e11565b5b60200260200101818152505080806109a590613e6f565b915050610886565b506109f78260050160008773ffffffffffffffffffffffffffffffffffffffff1673ffffffffffffffffffffffffffffffffffffffff1681526020019081526020016000206122f0565b81935093505050935093915050565b82823373ffffffffffffffffffffffffffffffffffffffff168273ffffffffffffffffffffffffffffffffffffffff1663217b2270836040518263ffffffff1660e01b8152600401610a589190613ec7565b60206040518083038186803b158015610a7057600080fd5b505afa158015610a84573d6000803e3d6000fd5b505050506040513d601f19601f82011682018060405250810190610aa89190613ef7565b73ffffffffffffffffffffffffffffffffffffffff1614610afe576040517f08c379a0000000000000000000000000000000000000000000000000000000008152600401610af590613f70565b60405180910390fd5b8484610b50816000808573ffffffffffffffffffffffffffffffffffffffff1673ffffffffffffffffffffffffffffffffffffffff16815260200190815260200160002061231190919063ffffffff16565b610b8f576040517f08c379a0000000000000000000000000000000000000000000000000000000008152600401610b8690613fdc565b60405180910390fd5b610b998787612328565b610ba4878787612383565b50505050505050565b6000600454905090565b60055481565b6000600554905090565b600081600060086000838152602001908152602001600020600601541415610c24576040517f08c379a0000000000000000000000000000000000000000000000000000000008152600401610c1b90614048565b60405180910390fd5b6008600084815260200190815260200160002060070160009054906101000a900460ff16915050919050565b6060610cad600260008573ffffffffffffffffffffffffffffffffffffffff1673ffffffffffffffffffffffffffffffffffffffff16815260200190815260200160002060008481526020019081526020016000206000016122f0565b905092915050565b60065481565b80600060086000838152602001908152602001600020600601541415610d16576040517f08c379a0000000000000000000000000000000000000000000000000000000008152600401610d0d90614048565b60405180910390fd5b6000610d21836123e0565b9050806060015173ffffffffffffffffffffffffffffffffffffffff163373ffffffffffffffffffffffffffffffffffffffff1614610d95576040517f08c379a0000000000000000000000000000000000000000000000000000000008152600401610d8c906140b4565b60405180910390fd5b6000816080015111610ddc576040517f08c379a0000000000000000000000000000000000000000000000000000000008152600401610dd390614146565b60405180910390fd5b610e15816000015130600d60009054906101000a900473ffffffffffffffffffffffffffffffffffffffff168460200151600180612625565b600d60009054906101000a900473ffffffffffffffffffffffffffffffffffffffff1673ffffffffffffffffffffffffffffffffffffffff166108fc82608001519081150290604051600060405180830381858888f19350505050158015610e81573d6000803e3d6000fd5b507f52216a6001690416596ecdd7a9a8fef5ddb13b4fb07e7d3373124492891e7adb306001604051610eb492919061421d565b60405180910390a17f52216a6001690416596ecdd7a9a8fef5ddb13b4fb07e7d3373124492891e7adb308260800151604051610ef19291906142b8565b60405180910390a1806080015160046000828254610f0f9190614307565b9250508190555060076000815480929190610f2990613e6f565b9190505550610f37836126aa565b505050565b600a6020528060005260406000206000915054906101000a900473ffffffffffffffffffffffffffffffffffffffff1681565b600b602052816000526040600020602052806000526040600020600091509150505481565b81813373ffffffffffffffffffffffffffffffffffffffff168273ffffffffffffffffffffffffffffffffffffffff1663217b2270836040518263ffffffff1660e01b8152600401610fe69190613ec7565b60206040518083038186803b158015610ffe57600080fd5b505afa158015611012573d6000803e3d6000fd5b505050506040513d601f19601f820116820180604052508101906110369190613ef7565b73ffffffffffffffffffffffffffffffffffffffff161461108c576040517f08c379a000000000000000000000000000000000000000000000000000000000815260040161108390613f70565b60405180910390fd5b83836110de816000808573ffffffffffffffffffffffffffffffffffffffff1673ffffffffffffffffffffffffffffffffffffffff16815260200190815260200160002061231190919063ffffffff16565b61111d576040517f08c379a000000000000000000000000000000000000000000000000000000000815260040161111490613fdc565b60405180910390fd5b6111278686612708565b61113186866127e5565b61113b868661288e565b505050505050565b61114b613078565b60405180604001604052806008600085815260200190815260200160002060030160009054906101000a900473ffffffffffffffffffffffffffffffffffffffff1673ffffffffffffffffffffffffffffffffffffffff1673ffffffffffffffffffffffffffffffffffffffff1681526020016008600085815260200190815260200160002060020160009054906101000a900473ffffffffffffffffffffffffffffffffffffffff1673ffffffffffffffffffffffffffffffffffffffff1673ffffffffffffffffffffffffffffffffffffffff168152509050919050565b818134600360008473ffffffffffffffffffffffffffffffffffffffff1673ffffffffffffffffffffffffffffffffffffffff168152602001908152602001600020600083815260200190815260200160002060050154146112c2576040517f08c379a00000000000000000000000000000000000000000000000000000000081526004016112b990614387565b60405180910390fd5b8383611314816000808573ffffffffffffffffffffffffffffffffffffffff1673ffffffffffffffffffffffffffffffffffffffff16815260200190815260200160002061231190919063ffffffff16565b611353576040517f08c379a000000000000000000000000000000000000000000000000000000000815260040161134a90613fdc565b60405180910390fd5b60008673ffffffffffffffffffffffffffffffffffffffff1663217b2270876040518263ffffffff1660e01b815260040161138e9190613ec7565b60206040518083038186803b1580156113a657600080fd5b505afa1580156113ba573d6000803e3d6000fd5b505050506040513d601f19601f820116820180604052508101906113de9190613ef7565b905060006113ec8888611ba7565b90506113f88888612708565b61140288886127e5565b61140c888861288e565b611419888884338561293f565b6114288883308a600180612625565b3073ffffffffffffffffffffffffffffffffffffffff166108fc349081150290604051600060405180830381858888f1935050505015801561146e573d6000803e3d6000fd5b505050505050505050565b600061151d83600260008873ffffffffffffffffffffffffffffffffffffffff1673ffffffffffffffffffffffffffffffffffffffff168152602001908152602001600020600087815260200190815260200160002060060160008573ffffffffffffffffffffffffffffffffffffffff1673ffffffffffffffffffffffffffffffffffffffff1681526020019081526020016000206122bd90919063ffffffff16565b9050949350505050565b80600060086000838152602001908152602001600020600601541415611582576040517f08c379a000000000000000000000000000000000000000000000000000000000815260040161157990614048565b60405180910390fd5b600061158d836123e0565b9050806060015173ffffffffffffffffffffffffffffffffffffffff163373ffffffffffffffffffffffffffffffffffffffff1614611601576040517f08c379a00000000000000000000000000000000000000000000000000000000081526004016115f8906140b4565b60405180910390fd5b6000816080015111611648576040517f08c379a000000000000000000000000000000000000000000000000000000000815260040161163f90614146565b60405180910390fd5b61166381600001513083606001518460200151600180612625565b60006064605a836080015161167891906143a7565b6116829190614430565b905060006064600a846080015161169991906143a7565b6116a39190614430565b9050826040015173ffffffffffffffffffffffffffffffffffffffff166108fc839081150290604051600060405180830381858888f193505050501580156116ef573d6000803e3d6000fd5b508260a0015173ffffffffffffffffffffffffffffffffffffffff166108fc829081150290604051600060405180830381858888f1935050505015801561173a573d6000803e3d6000fd5b507f52216a6001690416596ecdd7a9a8fef5ddb13b4fb07e7d3373124492891e7adb30600160405161176d9291906144ad565b60405180910390a17f52216a6001690416596ecdd7a9a8fef5ddb13b4fb07e7d3373124492891e7adb30836040516117a6929190614548565b60405180910390a17f52216a6001690416596ecdd7a9a8fef5ddb13b4fb07e7d3373124492891e7adb30826040516117df9291906145e3565b60405180910390a18260800151600460008282546117fd9190614307565b925050819055506006600081548092919061181790613e6f565b9190505550611825856126aa565b5050505050565b6060806000600260008673ffffffffffffffffffffffffffffffffffffffff1673ffffffffffffffffffffffffffffffffffffffff16815260200190815260200160002060008581526020019081526020016000209050606060005b6118948360070161228e565b8110156118f8576118c66118b482856007016122a390919063ffffffff16565b846009016122bd90919063ffffffff16565b8282815181106118d9576118d8613e11565b5b60200260200101818152505080806118f090613e6f565b915050611888565b50611954600260008873ffffffffffffffffffffffffffffffffffffffff1673ffffffffffffffffffffffffffffffffffffffff16815260200190815260200160002060008781526020019081526020016000206007016122f0565b819350935050509250929050565b806000600860008381526020019081526020016000206006015414156119bd576040517f08c379a00000000000000000000000000000000000000000000000000000000081526004016119b490614048565b60405180910390fd5b60006119c8836123e0565b9050806040015173ffffffffffffffffffffffffffffffffffffffff163373ffffffffffffffffffffffffffffffffffffffff1614611a3c576040517f08c379a0000000000000000000000000000000000000000000000000000000008152600401611a339061467e565b60405180910390fd5b6000816080015111611a83576040517f08c379a0000000000000000000000000000000000000000000000000000000008152600401611a7a90614146565b60405180910390fd5b611a9e81600001513083604001518460200151600180612625565b806060015173ffffffffffffffffffffffffffffffffffffffff166108fc82608001519081150290604051600060405180830381858888f19350505050158015611aec573d6000803e3d6000fd5b507f52216a6001690416596ecdd7a9a8fef5ddb13b4fb07e7d3373124492891e7adb306001604051611b1f9291906146ea565b60405180910390a17f52216a6001690416596ecdd7a9a8fef5ddb13b4fb07e7d3373124492891e7adb308260800151604051611b5c929190614785565b60405180910390a1806080015160046000828254611b7a9190614307565b9250508190555060066000815480929190611b9490613e6f565b9190505550611ba2836126aa565b505050565b6000600360008473ffffffffffffffffffffffffffffffffffffffff1673ffffffffffffffffffffffffffffffffffffffff168152602001908152602001600020600083815260200190815260200160002060050154905092915050565b6000600b60008473ffffffffffffffffffffffffffffffffffffffff1673ffffffffffffffffffffffffffffffffffffffff168152602001908152602001600020600083815260200190815260200160002054905092915050565b6000611cb2826000808673ffffffffffffffffffffffffffffffffffffffff1673ffffffffffffffffffffffffffffffffffffffff16815260200190815260200160002061231190919063ffffffff16565b905092915050565b60606000600260008673ffffffffffffffffffffffffffffffffffffffff1673ffffffffffffffffffffffffffffffffffffffff16815260200190815260200160002060008581526020019081526020016000209050606060005b611d5e8360020160008773ffffffffffffffffffffffffffffffffffffffff1673ffffffffffffffffffffffffffffffffffffffff168152602001908152602001600020612baf565b811015611dea57611db8818460020160008873ffffffffffffffffffffffffffffffffffffffff1673ffffffffffffffffffffffffffffffffffffffff168152602001908152602001600020612bc490919063ffffffff16565b828281518110611dcb57611dca613e11565b5b6020026020010181815250508080611de290613e6f565b915050611d15565b5080925050509392505050565b60075481565b6060611e5a600260008573ffffffffffffffffffffffffffffffffffffffff1673ffffffffffffffffffffffffffffffffffffffff16815260200190815260200160002060008481526020019081526020016000206003016122f0565b905092915050565b60045481565b6060806000600360008673ffffffffffffffffffffffffffffffffffffffff1673ffffffffffffffffffffffffffffffffffffffff16815260200190815260200160002060008581526020019081526020016000209050606060005b611ed08360000161228e565b811015611f3457611f02611ef082856000016122a390919063ffffffff16565b846002016122bd90919063ffffffff16565b828281518110611f1557611f14613e11565b5b6020026020010181815250508080611f2c90613e6f565b915050611ec4565b50611f41826000016122f0565b819350935050509250929050565b600c60009054906101000a900473ffffffffffffffffffffffffffffffffffffffff1673ffffffffffffffffffffffffffffffffffffffff163373ffffffffffffffffffffffffffffffffffffffff1614611fdf576040517f08c379a0000000000000000000000000000000000000000000000000000000008152600401611fd690614820565b60405180910390fd5b80600d60006101000a81548173ffffffffffffffffffffffffffffffffffffffff021916908373ffffffffffffffffffffffffffffffffffffffff16021790555050565b61202b61309a565b600160008473ffffffffffffffffffffffffffffffffffffffff1673ffffffffffffffffffffffffffffffffffffffff16815260200190815260200160002060008381526020019081526020016000206003806020026040519081016040528092919082600380156120d7576020028201916000905b82829054906101000a900460ff161515815260200190600101906020826000010492830192600103820291508084116120a15790505b5050505050905092915050565b83833373ffffffffffffffffffffffffffffffffffffffff168273ffffffffffffffffffffffffffffffffffffffff1663217b2270836040518263ffffffff1660e01b81526004016121369190613ec7565b60206040518083038186803b15801561214e57600080fd5b505afa158015612162573d6000803e3d6000fd5b505050506040513d601f19601f820116820180604052508101906121869190613ef7565b73ffffffffffffffffffffffffffffffffffffffff16146121dc576040517f08c379a00000000000000000000000000000000000000000000000000000000081526004016121d390613f70565b60405180910390fd5b858561222e816000808573ffffffffffffffffffffffffffffffffffffffff1673ffffffffffffffffffffffffffffffffffffffff16815260200190815260200160002061231190919063ffffffff16565b1561226e576040517f08c379a00000000000000000000000000000000000000000000000000000000081526004016122659061488c565b60405180910390fd5b612279888887612bdb565b612284888888612383565b5050505050505050565b600061229c82600001612c91565b9050919050565b60006122b28360000183612ca2565b60001c905092915050565b60006122e5836000018373ffffffffffffffffffffffffffffffffffffffff1660001b612ccd565b60001c905092915050565b6060600061230083600001612d49565b905060608190508092505050919050565b60006123208360000183612da5565b905092915050565b600360008373ffffffffffffffffffffffffffffffffffffffff1673ffffffffffffffffffffffffffffffffffffffff1681526020019081526020016000206000828152602001908152602001600020600501600090555050565b80600360008573ffffffffffffffffffffffffffffffffffffffff1673ffffffffffffffffffffffffffffffffffffffff168152602001908152602001600020600084815260200190815260200160002060050181905550505050565b6123e86130bc565b81600060086000838152602001908152602001600020600601541415612443576040517f08c379a000000000000000000000000000000000000000000000000000000000815260040161243a90614048565b60405180910390fd5b60086000848152602001908152602001600020604051806101200160405290816000820160009054906101000a900473ffffffffffffffffffffffffffffffffffffffff1673ffffffffffffffffffffffffffffffffffffffff1673ffffffffffffffffffffffffffffffffffffffff168152602001600182015481526020016002820160009054906101000a900473ffffffffffffffffffffffffffffffffffffffff1673ffffffffffffffffffffffffffffffffffffffff1673ffffffffffffffffffffffffffffffffffffffff1681526020016003820160009054906101000a900473ffffffffffffffffffffffffffffffffffffffff1673ffffffffffffffffffffffffffffffffffffffff1673ffffffffffffffffffffffffffffffffffffffff168152602001600482015481526020016005820160009054906101000a900473ffffffffffffffffffffffffffffffffffffffff1673ffffffffffffffffffffffffffffffffffffffff1673ffffffffffffffffffffffffffffffffffffffff168152602001600682015481526020016007820160009054906101000a900460ff1660048111156125fd576125fc61382a565b5b600481111561260f5761260e61382a565b5b8152602001600882015481525050915050919050565b8573ffffffffffffffffffffffffffffffffffffffff1663511b6952868686866126508b8b89612dc8565b6040518663ffffffff1660e01b81526004016126709594939291906148ac565b600060405180830381600087803b15801561268a57600080fd5b505af115801561269e573d6000803e3d6000fd5b50505050505050505050565b60046008600083815260200190815260200160002060070160006101000a81548160ff021916908360048111156126e4576126e361382a565b5b02179055506000600860008381526020019081526020016000206004018190555050565b600260008373ffffffffffffffffffffffffffffffffffffffff1673ffffffffffffffffffffffffffffffffffffffff168152602001908152602001600020600082815260200190815260200160002060008082016000808201600080820160006127739190613175565b50505050600382016000808201600080820160006127919190613175565b50505050600782016000808201600080820160006127af9190613175565b5050505060098201600080820160008082016000808201600080820160006127d79190613175565b505050505050505050505050565b600360008373ffffffffffffffffffffffffffffffffffffffff1673ffffffffffffffffffffffffffffffffffffffff168152602001908152602001600020600082815260200190815260200160002060008082016000808201600080820160006128509190613175565b5050505060028201600080820160008082016000808201600080820160006128789190613175565b5050505050505050600582016000905550505050565b6128de816000808573ffffffffffffffffffffffffffffffffffffffff1673ffffffffffffffffffffffffffffffffffffffff168152602001908152602001600020612ea690919063ffffffff16565b50600160008373ffffffffffffffffffffffffffffffffffffffff1673ffffffffffffffffffffffffffffffffffffffff1681526020019081526020016000206000828152602001908152602001600020600061293b9190613196565b5050565b60006005600081548092919061295490613e6f565b9190505590506000600860008381526020019081526020016000209050868160000160006101000a81548173ffffffffffffffffffffffffffffffffffffffff021916908373ffffffffffffffffffffffffffffffffffffffff160217905550858160010181905550848160020160006101000a81548173ffffffffffffffffffffffffffffffffffffffff021916908373ffffffffffffffffffffffffffffffffffffffff160217905550838160030160006101000a81548173ffffffffffffffffffffffffffffffffffffffff021916908373ffffffffffffffffffffffffffffffffffffffff1602179055508281600401819055508673ffffffffffffffffffffffffffffffffffffffff1663e13a2b52876040518263ffffffff1660e01b8152600401612a859190613ec7565b60206040518083038186803b158015612a9d57600080fd5b505afa158015612ab1573d6000803e3d6000fd5b505050506040513d601f19601f82011682018060405250810190612ad59190613ef7565b8160050160006101000a81548173ffffffffffffffffffffffffffffffffffffffff021916908373ffffffffffffffffffffffffffffffffffffffff16021790555042816006018190555060008160070160006101000a81548160ff02191690836004811115612b4857612b4761382a565b5b02179055508181600801819055503460046000828254612b689190614906565b925050819055507f74c58905d24d8580e276a9f783f6c52c5ce2c2ee6fb31c1d097d74382139191b84604051612b9e91906149a8565b60405180910390a150505050505050565b6000612bbd82600001612c91565b9050919050565b6000612bd38360000183612ca2565b905092915050565b612c2b826000808673ffffffffffffffffffffffffffffffffffffffff1673ffffffffffffffffffffffffffffffffffffffff168152602001908152602001600020612ebd90919063ffffffff16565b5080600160008573ffffffffffffffffffffffffffffffffffffffff1673ffffffffffffffffffffffffffffffffffffffff1681526020019081526020016000206000848152602001908152602001600020906003612c8b92919061319d565b50505050565b600081600001805490509050919050565b6000826000018281548110612cba57612cb9613e11565b5b9060005260206000200154905092915050565b6000808360020160008481526020019081526020016000205490506000801b81141580612d005750612cff8484612ed4565b5b612d3f576040517f08c379a0000000000000000000000000000000000000000000000000000000008152600401612d3690614a35565b60405180910390fd5b8091505092915050565b606081600001805480602002602001604051908101604052809291908181526020018280548015612d9957602002820191906000526020600020905b815481526020019060010190808311612d85575b50505050509050919050565b600080836001016000848152602001908152602001600020541415905092915050565b60607f5d4750030310507a00ed34b9c56808c5423b741a733df02978ef34f07a4b87d7848484604051602001612e0093929190614abe565b604051602081830303815290604052604051602401612e20929190614afb565b6040516020818303038152906040527f6fb80336000000000000000000000000000000000000000000000000000000007bffffffffffffffffffffffffffffffffffffffffffffffffffffffff19166020820180517bffffffffffffffffffffffffffffffffffffffffffffffffffffffff838183161783525050505090509392505050565b6000612eb58360000183612ef4565b905092915050565b6000612ecc8360000183613008565b905092915050565b6000612eec828460000161231190919063ffffffff16565b905092915050565b60008083600101600084815260200190815260200160002054905060008114612ffc576000600182612f269190614307565b9050600060018660000180549050612f3e9190614307565b9050818114612fad576000866000018281548110612f5f57612f5e613e11565b5b9060005260206000200154905080876000018481548110612f8357612f82613e11565b5b90600052602060002001819055508387600101600083815260200190815260200160002081905550505b85600001805480612fc157612fc0614b2b565b5b600190038181906000526020600020016000905590558560010160008681526020019081526020016000206000905560019350505050613002565b60009150505b92915050565b60006130148383612da5565b61306d578260000182908060018154018082558091505060019003906000526020600020016000909190919091505582600001805490508360010160008481526020019081526020016000208190555060019050613072565b600090505b92915050565b6040518060400160405280600290602082028036833780820191505090505090565b6040518060600160405280600390602082028036833780820191505090505090565b604051806101200160405280600073ffffffffffffffffffffffffffffffffffffffff16815260200160008019168152602001600073ffffffffffffffffffffffffffffffffffffffff168152602001600073ffffffffffffffffffffffffffffffffffffffff16815260200160008152602001600073ffffffffffffffffffffffffffffffffffffffff16815260200160008152602001600060048111156131685761316761382a565b5b8152602001600081525090565b50805460008255906000526020600020908101906131939190613236565b50565b5060009055565b826003601f016020900481019282156132255791602002820160005b838211156131f657835183826101000a81548160ff02191690831515021790555092602001926001016020816000010492830192600103026131b9565b80156132235782816101000a81549060ff02191690556001016020816000010492830192600103026131f6565b505b5090506132329190613253565b5090565b5b8082111561324f576000816000905550600101613237565b5090565b5b8082111561326c576000816000905550600101613254565b5090565b600082825260208201905092915050565b7f7265636569766500000000000000000000000000000000000000000000000000600082015250565b60006132b7600783613270565b91506132c282613281565b602082019050919050565b600073ffffffffffffffffffffffffffffffffffffffff82169050919050565b60006132f8826132cd565b9050919050565b613308816132ed565b82525050565b6000819050919050565b6133218161330e565b82525050565b600081519050919050565b600082825260208201905092915050565b60005b83811015613361578082015181840152602081019050613346565b83811115613370576000848401525b50505050565b6000601f19601f8301169050919050565b600061339282613327565b61339c8185613332565b93506133ac818560208601613343565b6133b581613376565b840191505092915050565b600060808201905081810360008301526133d9816132aa565b90506133e860208301866132ff565b6133f56040830185613318565b81810360608301526134078184613387565b9050949350505050565b7f66616c6c6261636b000000000000000000000000000000000000000000000000600082015250565b6000613447600883613270565b915061345282613411565b602082019050919050565b82818337600083830152505050565b60006134788385613332565b935061348583858461345d565b61348e83613376565b840190509392505050565b600060808201905081810360008301526134b28161343a565b90506134c160208301876132ff565b6134ce6040830186613318565b81810360608301526134e181848661346c565b905095945050505050565b6000604051905090565b600080fd5b613504816132ed565b811461350f57600080fd5b50565b600081359050613521816134fb565b92915050565b6000819050919050565b61353a81613527565b811461354557600080fd5b50565b60008135905061355781613531565b92915050565b600080600060608486031215613576576135756134f6565b5b600061358486828701613512565b935050602061359586828701613548565b92505060406135a686828701613512565b9150509250925092565b600081519050919050565b600082825260208201905092915050565b6000819050602082019050919050565b6135e5816132ed565b82525050565b60006135f783836135dc565b60208301905092915050565b6000602082019050919050565b600061361b826135b0565b61362581856135bb565b9350613630836135cc565b8060005b8381101561366157815161364888826135eb565b975061365383613603565b925050600181019050613634565b5085935050505092915050565b600081519050919050565b600082825260208201905092915050565b6000819050602082019050919050565b6136a38161330e565b82525050565b60006136b5838361369a565b60208301905092915050565b6000602082019050919050565b60006136d98261366e565b6136e38185613679565b93506136ee8361368a565b8060005b8381101561371f57815161370688826136a9565b9750613711836136c1565b9250506001810190506136f2565b5085935050505092915050565b600060408201905081810360008301526137468185613610565b9050818103602083015261375a81846136ce565b90509392505050565b61376c8161330e565b811461377757600080fd5b50565b60008135905061378981613763565b92915050565b6000806000606084860312156137a8576137a76134f6565b5b60006137b686828701613512565b93505060206137c786828701613548565b92505060406137d88682870161377a565b9150509250925092565b60006020820190506137f76000830184613318565b92915050565b600060208284031215613813576138126134f6565b5b60006138218482850161377a565b91505092915050565b7f4e487b7100000000000000000000000000000000000000000000000000000000600052602160045260246000fd5b6005811061386a5761386961382a565b5b50565b600081905061387b82613859565b919050565b600061388b8261386d565b9050919050565b61389b81613880565b82525050565b60006020820190506138b66000830184613892565b92915050565b600080604083850312156138d3576138d26134f6565b5b60006138e185828601613512565b92505060206138f285828601613548565b9150509250929050565b600060208201905081810360008301526139168184613610565b905092915050565b600060208201905061393360008301846132ff565b92915050565b600060029050919050565b600081905092915050565b6000819050919050565b6000602082019050919050565b61396f81613939565b6139798184613944565b92506139848261394f565b8060005b838110156139b557815161399c87826135eb565b96506139a783613959565b925050600181019050613988565b505050505050565b60006040820190506139d26000830184613966565b92915050565b600080600080608085870312156139f2576139f16134f6565b5b6000613a0087828801613512565b9450506020613a1187828801613548565b9350506040613a2287828801613512565b9250506060613a3387828801613512565b91505092959194509250565b60008115159050919050565b613a5481613a3f565b82525050565b6000602082019050613a6f6000830184613a4b565b92915050565b600081519050919050565b600082825260208201905092915050565b6000819050602082019050919050565b613aaa81613527565b82525050565b6000613abc8383613aa1565b60208301905092915050565b6000602082019050919050565b6000613ae082613a75565b613aea8185613a80565b9350613af583613a91565b8060005b83811015613b26578151613b0d8882613ab0565b9750613b1883613ac8565b925050600181019050613af9565b5085935050505092915050565b60006020820190508181036000830152613b4d8184613ad5565b905092915050565b600060208284031215613b6b57613b6a6134f6565b5b6000613b7984828501613512565b91505092915050565b600060039050919050565b600081905092915050565b6000819050919050565b613bab81613a3f565b82525050565b6000613bbd8383613ba2565b60208301905092915050565b6000602082019050919050565b613bdf81613b82565b613be98184613b8d565b9250613bf482613b98565b8060005b83811015613c25578151613c0c8782613bb1565b9650613c1783613bc9565b925050600181019050613bf8565b505050505050565b6000606082019050613c426000830184613bd6565b92915050565b600080fd5b7f4e487b7100000000000000000000000000000000000000000000000000000000600052604160045260246000fd5b613c8582613376565b810181811067ffffffffffffffff82111715613ca457613ca3613c4d565b5b80604052505050565b6000613cb76134ec565b9050613cc38282613c7c565b919050565b600067ffffffffffffffff821115613ce357613ce2613c4d565b5b602082029050919050565b600080fd5b613cfc81613a3f565b8114613d0757600080fd5b50565b600081359050613d1981613cf3565b92915050565b6000613d32613d2d84613cc8565b613cad565b90508060208402830185811115613d4c57613d4b613cee565b5b835b81811015613d755780613d618882613d0a565b845260208401935050602081019050613d4e565b5050509392505050565b600082601f830112613d9457613d93613c48565b5b6003613da1848285613d1f565b91505092915050565b60008060008060c08587031215613dc457613dc36134f6565b5b6000613dd287828801613512565b9450506020613de387828801613548565b9350506040613df48782880161377a565b9250506060613e0587828801613d7f565b91505092959194509250565b7f4e487b7100000000000000000000000000000000000000000000000000000000600052603260045260246000fd5b7f4e487b7100000000000000000000000000000000000000000000000000000000600052601160045260246000fd5b6000613e7a8261330e565b91507fffffffffffffffffffffffffffffffffffffffffffffffffffffffffffffffff821415613ead57613eac613e40565b5b600182019050919050565b613ec181613527565b82525050565b6000602082019050613edc6000830184613eb8565b92915050565b600081519050613ef1816134fb565b92915050565b600060208284031215613f0d57613f0c6134f6565b5b6000613f1b84828501613ee2565b91505092915050565b7f53656e64657220646f65736e2774206f776e2074686973204c5350382e000000600082015250565b6000613f5a601d83613270565b9150613f6582613f24565b602082019050919050565b60006020820190508181036000830152613f8981613f4d565b9050919050565b7f4c535038206973206e6f74206f6e2073616c652e000000000000000000000000600082015250565b6000613fc6601483613270565b9150613fd182613f90565b602082019050919050565b60006020820190508181036000830152613ff581613fb9565b9050919050565b7f457363726f77206974656d20646f6573206e6f742065786973742e0000000000600082015250565b6000614032601b83613270565b915061403d82613ffc565b602082019050919050565b6000602082019050818103600083015261406181614025565b9050919050565b7f596f7520617265206e6f74206275796572206f662074686973206974656d2e00600082015250565b600061409e601f83613270565b91506140a982614068565b602082019050919050565b600060208201905081810360008301526140cd81614091565b9050919050565b7f417373657473206861766520616c7265616479206265656e20636c61696d656460008201527f2e00000000000000000000000000000000000000000000000000000000000000602082015250565b6000614130602183613270565b915061413b826140d4565b604082019050919050565b6000602082019050818103600083015261415f81614123565b9050919050565b7f4c5350382073656e7420746f2054726561737572792e00000000000000000000600082015250565b600061419c601683613270565b91506141a782614166565b602082019050919050565b6000819050919050565b6000819050919050565b60006141e16141dc6141d7846141b2565b6141bc565b61330e565b9050919050565b6141f1816141c6565b82525050565b50565b6000614207600083613332565b9150614212826141f7565b600082019050919050565b600060808201905081810360008301526142368161418f565b905061424560208301856132ff565b61425260408301846141e8565b8181036060830152614263816141fa565b90509392505050565b7f4c59582073656e7420746f205472656173757279000000000000000000000000600082015250565b60006142a2601483613270565b91506142ad8261426c565b602082019050919050565b600060808201905081810360008301526142d181614295565b90506142e060208301856132ff565b6142ed6040830184613318565b81810360608301526142fe816141fa565b90509392505050565b60006143128261330e565b915061431d8361330e565b9250828210156143305761432f613e40565b5b828203905092915050565b7f596f75206469646e27742073656e6420656e6f756768204c5958000000000000600082015250565b6000614371601a83613270565b915061437c8261433b565b602082019050919050565b600060208201905081810360008301526143a081614364565b9050919050565b60006143b28261330e565b91506143bd8361330e565b9250817fffffffffffffffffffffffffffffffffffffffffffffffffffffffffffffffff04831182151516156143f6576143f5613e40565b5b828202905092915050565b7f4e487b7100000000000000000000000000000000000000000000000000000000600052601260045260246000fd5b600061443b8261330e565b91506144468361330e565b92508261445657614455614401565b5b828204905092915050565b7f4c5350382073656e7420746f206e6577206f776e65722e000000000000000000600082015250565b6000614497601783613270565b91506144a282614461565b602082019050919050565b600060808201905081810360008301526144c68161448a565b90506144d560208301856132ff565b6144e260408301846141e8565b81810360608301526144f3816141fa565b90509392505050565b7f4c59582073656e7420746f2073656c6c65722e00000000000000000000000000600082015250565b6000614532601383613270565b915061453d826144fc565b602082019050919050565b6000608082019050818103600083015261456181614525565b905061457060208301856132ff565b61457d6040830184613318565b818103606083015261458e816141fa565b90509392505050565b7f526f79616c74792073656e7420746f206d696e7465722e000000000000000000600082015250565b60006145cd601783613270565b91506145d882614597565b602082019050919050565b600060808201905081810360008301526145fc816145c0565b905061460b60208301856132ff565b6146186040830184613318565b8181036060830152614629816141fa565b90509392505050565b7f596f7520617265206e6f742073656c6c6572206f662074686973206974656d2e600082015250565b6000614668602083613270565b915061467382614632565b602082019050919050565b600060208201905081810360008301526146978161465b565b9050919050565b7f4c5350382072657475726e65642073656c6c65722e0000000000000000000000600082015250565b60006146d4601583613270565b91506146df8261469e565b602082019050919050565b60006080820190508181036000830152614703816146c7565b905061471260208301856132ff565b61471f60408301846141e8565b8181036060830152614730816141fa565b90509392505050565b7f4c59582072657475726e656420746f2062757965720000000000000000000000600082015250565b600061476f601583613270565b915061477a82614739565b602082019050919050565b6000608082019050818103600083015261479e81614762565b90506147ad60208301856132ff565b6147ba6040830184613318565b81810360608301526147cb816141fa565b90509392505050565b7f556e617574686f72697365642e00000000000000000000000000000000000000600082015250565b600061480a600d83613270565b9150614815826147d4565b602082019050919050565b60006020820190508181036000830152614839816147fd565b9050919050565b7f4c535038206973206f6e2073616c652e00000000000000000000000000000000600082015250565b6000614876601083613270565b915061488182614840565b602082019050919050565b600060208201905081810360008301526148a581614869565b9050919050565b600060a0820190506148c160008301886132ff565b6148ce60208301876132ff565b6148db6040830186613eb8565b6148e86060830185613a4b565b81810360808301526148fa8184613387565b90509695505050505050565b60006149118261330e565b915061491c8361330e565b9250827fffffffffffffffffffffffffffffffffffffffffffffffffffffffffffffffff0382111561495157614950613e40565b5b828201905092915050565b7f455343524f57204954454d204352454154454400000000000000000000000000600082015250565b6000614992601383613270565b915061499d8261495c565b602082019050919050565b600060608201905081810360008301526149c181614985565b90506149d060208301846132ff565b81810360408301526149e1816141fa565b905092915050565b7f456e756d657261626c654d61703a206e6f6e6578697374656e74206b65790000600082015250565b6000614a1f601e83613270565b9150614a2a826149e9565b602082019050919050565b60006020820190508181036000830152614a4e81614a12565b9050919050565b60008160601b9050919050565b6000614a6d82614a55565b9050919050565b6000614a7f82614a62565b9050919050565b614a97614a92826132ed565b614a74565b82525050565b6000819050919050565b614ab8614ab38261330e565b614a9d565b82525050565b6000614aca8286614a86565b601482019150614ada8285614a86565b601482019150614aea8284614aa7565b602082019150819050949350505050565b6000604082019050614b106000830185613eb8565b8181036020830152614b228184613387565b90509392505050565b7f4e487b7100000000000000000000000000000000000000000000000000000000600052603160045260246000fdfea26469706673582212204f4ac1019c8709040b827bec607ec9fc7ce71eec0b842a1884aca182921f6d0764736f6c63430008090033",
  "linkReferences": {},
  "deployedLinkReferences": {}
}